{
	"contracts/mappings/FavoriteQuoteBoard.sol": {
		"FavoriteQuoteBoard": {
			"abi": [
				{
					"inputs": [],
					"name": "FavoriteQuoteBoard__AlreadySetQuote",
					"type": "error"
				},
				{
					"inputs": [],
					"name": "FavoriteQuoteBoard__EmptyQuote",
					"type": "error"
				},
				{
					"inputs": [
						{
							"internalType": "address",
							"name": "_user",
							"type": "address"
						}
					],
					"name": "getQuote",
					"outputs": [
						{
							"internalType": "string",
							"name": "",
							"type": "string"
						}
					],
					"stateMutability": "view",
					"type": "function"
				},
				{
					"inputs": [
						{
							"internalType": "address",
							"name": "_user",
							"type": "address"
						}
					],
					"name": "hasSetQuote",
					"outputs": [
						{
							"internalType": "bool",
							"name": "",
							"type": "bool"
						}
					],
					"stateMutability": "view",
					"type": "function"
				},
				{
					"inputs": [
						{
							"internalType": "string",
							"name": "_quote",
							"type": "string"
						}
					],
					"name": "setQuote",
					"outputs": [],
					"stateMutability": "nonpayable",
					"type": "function"
				}
			],
			"devdoc": {
				"kind": "dev",
				"methods": {},
				"version": 1
			},
			"evm": {
				"assembly": "    /* \"contracts/mappings/FavoriteQuoteBoard.sol\":149:904  contract FavoriteQuoteBoard {... */\n  mstore(0x40, 0x80)\n  callvalue\n  dup1\n  iszero\n  tag_1\n  jumpi\n  0x00\n  dup1\n  revert\ntag_1:\n  pop\n  dataSize(sub_0)\n  dup1\n  dataOffset(sub_0)\n  0x00\n  codecopy\n  0x00\n  return\nstop\n\nsub_0: assembly {\n        /* \"contracts/mappings/FavoriteQuoteBoard.sol\":149:904  contract FavoriteQuoteBoard {... */\n      mstore(0x40, 0x80)\n      callvalue\n      dup1\n      iszero\n      tag_1\n      jumpi\n      0x00\n      dup1\n      revert\n    tag_1:\n      pop\n      jumpi(tag_2, lt(calldatasize, 0x04))\n      shr(0xe0, calldataload(0x00))\n      dup1\n      0xc23cb92a\n      eq\n      tag_3\n      jumpi\n      dup1\n      0xe3de1703\n      eq\n      tag_4\n      jumpi\n      dup1\n      0xf93ce758\n      eq\n      tag_5\n      jumpi\n    tag_2:\n      0x00\n      dup1\n      revert\n        /* \"contracts/mappings/FavoriteQuoteBoard.sol\":674:784  function getQuote(address _user) public view returns (string memory) {... */\n    tag_3:\n      tag_6\n      0x04\n      dup1\n      calldatasize\n      sub\n      dup2\n      add\n      swap1\n      tag_7\n      swap2\n      swap1\n      tag_8\n      jump\t// in\n    tag_7:\n      tag_9\n      jump\t// in\n    tag_6:\n      mload(0x40)\n      tag_10\n      swap2\n      swap1\n      tag_11\n      jump\t// in\n    tag_10:\n      mload(0x40)\n      dup1\n      swap2\n      sub\n      swap1\n      return\n        /* \"contracts/mappings/FavoriteQuoteBoard.sol\":339:647  function setQuote (string memory _quote) public {... */\n    tag_4:\n      tag_12\n      0x04\n      dup1\n      calldatasize\n      sub\n      dup2\n      add\n      swap1\n      tag_13\n      swap2\n      swap1\n      tag_14\n      jump\t// in\n    tag_13:\n      tag_15\n      jump\t// in\n    tag_12:\n      stop\n        /* \"contracts/mappings/FavoriteQuoteBoard.sol\":792:901  function hasSetQuote(address _user) public view returns (bool) {... */\n    tag_5:\n      tag_16\n      0x04\n      dup1\n      calldatasize\n      sub\n      dup2\n      add\n      swap1\n      tag_17\n      swap2\n      swap1\n      tag_8\n      jump\t// in\n    tag_17:\n      tag_18\n      jump\t// in\n    tag_16:\n      mload(0x40)\n      tag_19\n      swap2\n      swap1\n      tag_20\n      jump\t// in\n    tag_19:\n      mload(0x40)\n      dup1\n      swap2\n      sub\n      swap1\n      return\n        /* \"contracts/mappings/FavoriteQuoteBoard.sol\":674:784  function getQuote(address _user) public view returns (string memory) {... */\n    tag_9:\n        /* \"contracts/mappings/FavoriteQuoteBoard.sol\":728:741  string memory */\n      0x60\n        /* \"contracts/mappings/FavoriteQuoteBoard.sol\":761:769  s_quotes */\n      0x00\n        /* \"contracts/mappings/FavoriteQuoteBoard.sol\":761:776  s_quotes[_user] */\n      dup1\n        /* \"contracts/mappings/FavoriteQuoteBoard.sol\":770:775  _user */\n      dup4\n        /* \"contracts/mappings/FavoriteQuoteBoard.sol\":761:776  s_quotes[_user] */\n      0xffffffffffffffffffffffffffffffffffffffff\n      and\n      0xffffffffffffffffffffffffffffffffffffffff\n      and\n      dup2\n      mstore\n      0x20\n      add\n      swap1\n      dup2\n      mstore\n      0x20\n      add\n      0x00\n      keccak256\n        /* \"contracts/mappings/FavoriteQuoteBoard.sol\":754:776  return s_quotes[_user] */\n      dup1\n      sload\n      tag_22\n      swap1\n      tag_23\n      jump\t// in\n    tag_22:\n      dup1\n      0x1f\n      add\n      0x20\n      dup1\n      swap2\n      div\n      mul\n      0x20\n      add\n      mload(0x40)\n      swap1\n      dup2\n      add\n      0x40\n      mstore\n      dup1\n      swap3\n      swap2\n      swap1\n      dup2\n      dup2\n      mstore\n      0x20\n      add\n      dup3\n      dup1\n      sload\n      tag_24\n      swap1\n      tag_23\n      jump\t// in\n    tag_24:\n      dup1\n      iszero\n      tag_25\n      jumpi\n      dup1\n      0x1f\n      lt\n      tag_26\n      jumpi\n      0x0100\n      dup1\n      dup4\n      sload\n      div\n      mul\n      dup4\n      mstore\n      swap2\n      0x20\n      add\n      swap2\n      jump(tag_25)\n    tag_26:\n      dup3\n      add\n      swap2\n      swap1\n      0x00\n      mstore\n      keccak256(0x00, 0x20)\n      swap1\n    tag_27:\n      dup2\n      sload\n      dup2\n      mstore\n      swap1\n      0x01\n      add\n      swap1\n      0x20\n      add\n      dup1\n      dup4\n      gt\n      tag_27\n      jumpi\n      dup3\n      swap1\n      sub\n      0x1f\n      and\n      dup3\n      add\n      swap2\n    tag_25:\n      pop\n      pop\n      pop\n      pop\n      pop\n      swap1\n      pop\n        /* \"contracts/mappings/FavoriteQuoteBoard.sol\":674:784  function getQuote(address _user) public view returns (string memory) {... */\n      swap2\n      swap1\n      pop\n      jump\t// out\n        /* \"contracts/mappings/FavoriteQuoteBoard.sol\":339:647  function setQuote (string memory _quote) public {... */\n    tag_15:\n        /* \"contracts/mappings/FavoriteQuoteBoard.sol\":402:415  s_hasSetQuote */\n      0x01\n        /* \"contracts/mappings/FavoriteQuoteBoard.sol\":402:427  s_hasSetQuote[msg.sender] */\n      0x00\n        /* \"contracts/mappings/FavoriteQuoteBoard.sol\":416:426  msg.sender */\n      caller\n        /* \"contracts/mappings/FavoriteQuoteBoard.sol\":402:427  s_hasSetQuote[msg.sender] */\n      0xffffffffffffffffffffffffffffffffffffffff\n      and\n      0xffffffffffffffffffffffffffffffffffffffff\n      and\n      dup2\n      mstore\n      0x20\n      add\n      swap1\n      dup2\n      mstore\n      0x20\n      add\n      0x00\n      keccak256\n      0x00\n      swap1\n      sload\n      swap1\n      0x0100\n      exp\n      swap1\n      div\n      0xff\n      and\n        /* \"contracts/mappings/FavoriteQuoteBoard.sol\":398:473  if (s_hasSetQuote[msg.sender]) revert FavoriteQuoteBoard__AlreadySetQuote() */\n      iszero\n      tag_29\n      jumpi\n        /* \"contracts/mappings/FavoriteQuoteBoard.sol\":436:473  FavoriteQuoteBoard__AlreadySetQuote() */\n      mload(0x40)\n      0xdbbfdc7e00000000000000000000000000000000000000000000000000000000\n      dup2\n      mstore\n      0x04\n      add\n      mload(0x40)\n      dup1\n      swap2\n      sub\n      swap1\n      revert\n        /* \"contracts/mappings/FavoriteQuoteBoard.sol\":398:473  if (s_hasSetQuote[msg.sender]) revert FavoriteQuoteBoard__AlreadySetQuote() */\n    tag_29:\n        /* \"contracts/mappings/FavoriteQuoteBoard.sol\":512:513  0 */\n      0x00\n        /* \"contracts/mappings/FavoriteQuoteBoard.sol\":494:500  _quote */\n      dup2\n        /* \"contracts/mappings/FavoriteQuoteBoard.sol\":488:508  bytes(_quote).length */\n      mload\n        /* \"contracts/mappings/FavoriteQuoteBoard.sol\":488:513  bytes(_quote).length == 0 */\n      sub\n        /* \"contracts/mappings/FavoriteQuoteBoard.sol\":484:554  if (bytes(_quote).length == 0) revert FavoriteQuoteBoard__EmptyQuote() */\n      tag_30\n      jumpi\n        /* \"contracts/mappings/FavoriteQuoteBoard.sol\":522:554  FavoriteQuoteBoard__EmptyQuote() */\n      mload(0x40)\n      0xd5c5965d00000000000000000000000000000000000000000000000000000000\n      dup2\n      mstore\n      0x04\n      add\n      mload(0x40)\n      dup1\n      swap2\n      sub\n      swap1\n      revert\n        /* \"contracts/mappings/FavoriteQuoteBoard.sol\":484:554  if (bytes(_quote).length == 0) revert FavoriteQuoteBoard__EmptyQuote() */\n    tag_30:\n        /* \"contracts/mappings/FavoriteQuoteBoard.sol\":590:596  _quote */\n      dup1\n        /* \"contracts/mappings/FavoriteQuoteBoard.sol\":567:575  s_quotes */\n      0x00\n        /* \"contracts/mappings/FavoriteQuoteBoard.sol\":567:587  s_quotes[msg.sender] */\n      dup1\n        /* \"contracts/mappings/FavoriteQuoteBoard.sol\":576:586  msg.sender */\n      caller\n        /* \"contracts/mappings/FavoriteQuoteBoard.sol\":567:587  s_quotes[msg.sender] */\n      0xffffffffffffffffffffffffffffffffffffffff\n      and\n      0xffffffffffffffffffffffffffffffffffffffff\n      and\n      dup2\n      mstore\n      0x20\n      add\n      swap1\n      dup2\n      mstore\n      0x20\n      add\n      0x00\n      keccak256\n        /* \"contracts/mappings/FavoriteQuoteBoard.sol\":567:596  s_quotes[msg.sender] = _quote */\n      swap1\n      dup2\n      tag_31\n      swap2\n      swap1\n      tag_32\n      jump\t// in\n    tag_31:\n      pop\n        /* \"contracts/mappings/FavoriteQuoteBoard.sol\":635:639  true */\n      0x01\n        /* \"contracts/mappings/FavoriteQuoteBoard.sol\":607:620  s_hasSetQuote */\n      dup1\n        /* \"contracts/mappings/FavoriteQuoteBoard.sol\":607:632  s_hasSetQuote[msg.sender] */\n      0x00\n        /* \"contracts/mappings/FavoriteQuoteBoard.sol\":621:631  msg.sender */\n      caller\n        /* \"contracts/mappings/FavoriteQuoteBoard.sol\":607:632  s_hasSetQuote[msg.sender] */\n      0xffffffffffffffffffffffffffffffffffffffff\n      and\n      0xffffffffffffffffffffffffffffffffffffffff\n      and\n      dup2\n      mstore\n      0x20\n      add\n      swap1\n      dup2\n      mstore\n      0x20\n      add\n      0x00\n      keccak256\n      0x00\n        /* \"contracts/mappings/FavoriteQuoteBoard.sol\":607:639  s_hasSetQuote[msg.sender] = true */\n      0x0100\n      exp\n      dup2\n      sload\n      dup2\n      0xff\n      mul\n      not\n      and\n      swap1\n      dup4\n      iszero\n      iszero\n      mul\n      or\n      swap1\n      sstore\n      pop\n        /* \"contracts/mappings/FavoriteQuoteBoard.sol\":339:647  function setQuote (string memory _quote) public {... */\n      pop\n      jump\t// out\n        /* \"contracts/mappings/FavoriteQuoteBoard.sol\":792:901  function hasSetQuote(address _user) public view returns (bool) {... */\n    tag_18:\n        /* \"contracts/mappings/FavoriteQuoteBoard.sol\":849:853  bool */\n      0x00\n        /* \"contracts/mappings/FavoriteQuoteBoard.sol\":873:886  s_hasSetQuote */\n      0x01\n        /* \"contracts/mappings/FavoriteQuoteBoard.sol\":873:893  s_hasSetQuote[_user] */\n      0x00\n        /* \"contracts/mappings/FavoriteQuoteBoard.sol\":887:892  _user */\n      dup4\n        /* \"contracts/mappings/FavoriteQuoteBoard.sol\":873:893  s_hasSetQuote[_user] */\n      0xffffffffffffffffffffffffffffffffffffffff\n      and\n      0xffffffffffffffffffffffffffffffffffffffff\n      and\n      dup2\n      mstore\n      0x20\n      add\n      swap1\n      dup2\n      mstore\n      0x20\n      add\n      0x00\n      keccak256\n      0x00\n      swap1\n      sload\n      swap1\n      0x0100\n      exp\n      swap1\n      div\n      0xff\n      and\n        /* \"contracts/mappings/FavoriteQuoteBoard.sol\":866:893  return s_hasSetQuote[_user] */\n      swap1\n      pop\n        /* \"contracts/mappings/FavoriteQuoteBoard.sol\":792:901  function hasSetQuote(address _user) public view returns (bool) {... */\n      swap2\n      swap1\n      pop\n      jump\t// out\n        /* \"#utility.yul\":7:82   */\n    tag_34:\n        /* \"#utility.yul\":40:46   */\n      0x00\n        /* \"#utility.yul\":73:75   */\n      0x40\n        /* \"#utility.yul\":67:76   */\n      mload\n        /* \"#utility.yul\":57:76   */\n      swap1\n      pop\n        /* \"#utility.yul\":7:82   */\n      swap1\n      jump\t// out\n        /* \"#utility.yul\":88:205   */\n    tag_35:\n        /* \"#utility.yul\":197:198   */\n      0x00\n        /* \"#utility.yul\":194:195   */\n      dup1\n        /* \"#utility.yul\":187:199   */\n      revert\n        /* \"#utility.yul\":211:328   */\n    tag_36:\n        /* \"#utility.yul\":320:321   */\n      0x00\n        /* \"#utility.yul\":317:318   */\n      dup1\n        /* \"#utility.yul\":310:322   */\n      revert\n        /* \"#utility.yul\":334:460   */\n    tag_37:\n        /* \"#utility.yul\":371:378   */\n      0x00\n        /* \"#utility.yul\":411:453   */\n      0xffffffffffffffffffffffffffffffffffffffff\n        /* \"#utility.yul\":404:409   */\n      dup3\n        /* \"#utility.yul\":400:454   */\n      and\n        /* \"#utility.yul\":389:454   */\n      swap1\n      pop\n        /* \"#utility.yul\":334:460   */\n      swap2\n      swap1\n      pop\n      jump\t// out\n        /* \"#utility.yul\":466:562   */\n    tag_38:\n        /* \"#utility.yul\":503:510   */\n      0x00\n        /* \"#utility.yul\":532:556   */\n      tag_80\n        /* \"#utility.yul\":550:555   */\n      dup3\n        /* \"#utility.yul\":532:556   */\n      tag_37\n      jump\t// in\n    tag_80:\n        /* \"#utility.yul\":521:556   */\n      swap1\n      pop\n        /* \"#utility.yul\":466:562   */\n      swap2\n      swap1\n      pop\n      jump\t// out\n        /* \"#utility.yul\":568:690   */\n    tag_39:\n        /* \"#utility.yul\":641:665   */\n      tag_82\n        /* \"#utility.yul\":659:664   */\n      dup2\n        /* \"#utility.yul\":641:665   */\n      tag_38\n      jump\t// in\n    tag_82:\n        /* \"#utility.yul\":634:639   */\n      dup2\n        /* \"#utility.yul\":631:666   */\n      eq\n        /* \"#utility.yul\":621:684   */\n      tag_83\n      jumpi\n        /* \"#utility.yul\":680:681   */\n      0x00\n        /* \"#utility.yul\":677:678   */\n      dup1\n        /* \"#utility.yul\":670:682   */\n      revert\n        /* \"#utility.yul\":621:684   */\n    tag_83:\n        /* \"#utility.yul\":568:690   */\n      pop\n      jump\t// out\n        /* \"#utility.yul\":696:835   */\n    tag_40:\n        /* \"#utility.yul\":742:747   */\n      0x00\n        /* \"#utility.yul\":780:786   */\n      dup2\n        /* \"#utility.yul\":767:787   */\n      calldataload\n        /* \"#utility.yul\":758:787   */\n      swap1\n      pop\n        /* \"#utility.yul\":796:829   */\n      tag_85\n        /* \"#utility.yul\":823:828   */\n      dup2\n        /* \"#utility.yul\":796:829   */\n      tag_39\n      jump\t// in\n    tag_85:\n        /* \"#utility.yul\":696:835   */\n      swap3\n      swap2\n      pop\n      pop\n      jump\t// out\n        /* \"#utility.yul\":841:1170   */\n    tag_8:\n        /* \"#utility.yul\":900:906   */\n      0x00\n        /* \"#utility.yul\":949:951   */\n      0x20\n        /* \"#utility.yul\":937:946   */\n      dup3\n        /* \"#utility.yul\":928:935   */\n      dup5\n        /* \"#utility.yul\":924:947   */\n      sub\n        /* \"#utility.yul\":920:952   */\n      slt\n        /* \"#utility.yul\":917:1036   */\n      iszero\n      tag_87\n      jumpi\n        /* \"#utility.yul\":955:1034   */\n      tag_88\n      tag_35\n      jump\t// in\n    tag_88:\n        /* \"#utility.yul\":917:1036   */\n    tag_87:\n        /* \"#utility.yul\":1075:1076   */\n      0x00\n        /* \"#utility.yul\":1100:1153   */\n      tag_89\n        /* \"#utility.yul\":1145:1152   */\n      dup5\n        /* \"#utility.yul\":1136:1142   */\n      dup3\n        /* \"#utility.yul\":1125:1134   */\n      dup6\n        /* \"#utility.yul\":1121:1143   */\n      add\n        /* \"#utility.yul\":1100:1153   */\n      tag_40\n      jump\t// in\n    tag_89:\n        /* \"#utility.yul\":1090:1153   */\n      swap2\n      pop\n        /* \"#utility.yul\":1046:1163   */\n      pop\n        /* \"#utility.yul\":841:1170   */\n      swap3\n      swap2\n      pop\n      pop\n      jump\t// out\n        /* \"#utility.yul\":1176:1275   */\n    tag_41:\n        /* \"#utility.yul\":1228:1234   */\n      0x00\n        /* \"#utility.yul\":1262:1267   */\n      dup2\n        /* \"#utility.yul\":1256:1268   */\n      mload\n        /* \"#utility.yul\":1246:1268   */\n      swap1\n      pop\n        /* \"#utility.yul\":1176:1275   */\n      swap2\n      swap1\n      pop\n      jump\t// out\n        /* \"#utility.yul\":1281:1450   */\n    tag_42:\n        /* \"#utility.yul\":1365:1376   */\n      0x00\n        /* \"#utility.yul\":1399:1405   */\n      dup3\n        /* \"#utility.yul\":1394:1397   */\n      dup3\n        /* \"#utility.yul\":1387:1406   */\n      mstore\n        /* \"#utility.yul\":1439:1443   */\n      0x20\n        /* \"#utility.yul\":1434:1437   */\n      dup3\n        /* \"#utility.yul\":1430:1444   */\n      add\n        /* \"#utility.yul\":1415:1444   */\n      swap1\n      pop\n        /* \"#utility.yul\":1281:1450   */\n      swap3\n      swap2\n      pop\n      pop\n      jump\t// out\n        /* \"#utility.yul\":1456:1702   */\n    tag_43:\n        /* \"#utility.yul\":1537:1538   */\n      0x00\n        /* \"#utility.yul\":1547:1660   */\n    tag_93:\n        /* \"#utility.yul\":1561:1567   */\n      dup4\n        /* \"#utility.yul\":1558:1559   */\n      dup2\n        /* \"#utility.yul\":1555:1568   */\n      lt\n        /* \"#utility.yul\":1547:1660   */\n      iszero\n      tag_95\n      jumpi\n        /* \"#utility.yul\":1646:1647   */\n      dup1\n        /* \"#utility.yul\":1641:1644   */\n      dup3\n        /* \"#utility.yul\":1637:1648   */\n      add\n        /* \"#utility.yul\":1631:1649   */\n      mload\n        /* \"#utility.yul\":1627:1628   */\n      dup2\n        /* \"#utility.yul\":1622:1625   */\n      dup5\n        /* \"#utility.yul\":1618:1629   */\n      add\n        /* \"#utility.yul\":1611:1650   */\n      mstore\n        /* \"#utility.yul\":1583:1585   */\n      0x20\n        /* \"#utility.yul\":1580:1581   */\n      dup2\n        /* \"#utility.yul\":1576:1586   */\n      add\n        /* \"#utility.yul\":1571:1586   */\n      swap1\n      pop\n        /* \"#utility.yul\":1547:1660   */\n      jump(tag_93)\n    tag_95:\n        /* \"#utility.yul\":1694:1695   */\n      0x00\n        /* \"#utility.yul\":1685:1691   */\n      dup5\n        /* \"#utility.yul\":1680:1683   */\n      dup5\n        /* \"#utility.yul\":1676:1692   */\n      add\n        /* \"#utility.yul\":1669:1696   */\n      mstore\n        /* \"#utility.yul\":1518:1702   */\n      pop\n        /* \"#utility.yul\":1456:1702   */\n      pop\n      pop\n      pop\n      jump\t// out\n        /* \"#utility.yul\":1708:1810   */\n    tag_44:\n        /* \"#utility.yul\":1749:1755   */\n      0x00\n        /* \"#utility.yul\":1800:1802   */\n      0x1f\n        /* \"#utility.yul\":1796:1803   */\n      not\n        /* \"#utility.yul\":1791:1793   */\n      0x1f\n        /* \"#utility.yul\":1784:1789   */\n      dup4\n        /* \"#utility.yul\":1780:1794   */\n      add\n        /* \"#utility.yul\":1776:1804   */\n      and\n        /* \"#utility.yul\":1766:1804   */\n      swap1\n      pop\n        /* \"#utility.yul\":1708:1810   */\n      swap2\n      swap1\n      pop\n      jump\t// out\n        /* \"#utility.yul\":1816:2193   */\n    tag_45:\n        /* \"#utility.yul\":1904:1907   */\n      0x00\n        /* \"#utility.yul\":1932:1971   */\n      tag_98\n        /* \"#utility.yul\":1965:1970   */\n      dup3\n        /* \"#utility.yul\":1932:1971   */\n      tag_41\n      jump\t// in\n    tag_98:\n        /* \"#utility.yul\":1987:2058   */\n      tag_99\n        /* \"#utility.yul\":2051:2057   */\n      dup2\n        /* \"#utility.yul\":2046:2049   */\n      dup6\n        /* \"#utility.yul\":1987:2058   */\n      tag_42\n      jump\t// in\n    tag_99:\n        /* \"#utility.yul\":1980:2058   */\n      swap4\n      pop\n        /* \"#utility.yul\":2067:2132   */\n      tag_100\n        /* \"#utility.yul\":2125:2131   */\n      dup2\n        /* \"#utility.yul\":2120:2123   */\n      dup6\n        /* \"#utility.yul\":2113:2117   */\n      0x20\n        /* \"#utility.yul\":2106:2111   */\n      dup7\n        /* \"#utility.yul\":2102:2118   */\n      add\n        /* \"#utility.yul\":2067:2132   */\n      tag_43\n      jump\t// in\n    tag_100:\n        /* \"#utility.yul\":2157:2186   */\n      tag_101\n        /* \"#utility.yul\":2179:2185   */\n      dup2\n        /* \"#utility.yul\":2157:2186   */\n      tag_44\n      jump\t// in\n    tag_101:\n        /* \"#utility.yul\":2152:2155   */\n      dup5\n        /* \"#utility.yul\":2148:2187   */\n      add\n        /* \"#utility.yul\":2141:2187   */\n      swap2\n      pop\n        /* \"#utility.yul\":1908:2193   */\n      pop\n        /* \"#utility.yul\":1816:2193   */\n      swap3\n      swap2\n      pop\n      pop\n      jump\t// out\n        /* \"#utility.yul\":2199:2512   */\n    tag_11:\n        /* \"#utility.yul\":2312:2316   */\n      0x00\n        /* \"#utility.yul\":2350:2352   */\n      0x20\n        /* \"#utility.yul\":2339:2348   */\n      dup3\n        /* \"#utility.yul\":2335:2353   */\n      add\n        /* \"#utility.yul\":2327:2353   */\n      swap1\n      pop\n        /* \"#utility.yul\":2399:2408   */\n      dup2\n        /* \"#utility.yul\":2393:2397   */\n      dup2\n        /* \"#utility.yul\":2389:2409   */\n      sub\n        /* \"#utility.yul\":2385:2386   */\n      0x00\n        /* \"#utility.yul\":2374:2383   */\n      dup4\n        /* \"#utility.yul\":2370:2387   */\n      add\n        /* \"#utility.yul\":2363:2410   */\n      mstore\n        /* \"#utility.yul\":2427:2505   */\n      tag_103\n        /* \"#utility.yul\":2500:2504   */\n      dup2\n        /* \"#utility.yul\":2491:2497   */\n      dup5\n        /* \"#utility.yul\":2427:2505   */\n      tag_45\n      jump\t// in\n    tag_103:\n        /* \"#utility.yul\":2419:2505   */\n      swap1\n      pop\n        /* \"#utility.yul\":2199:2512   */\n      swap3\n      swap2\n      pop\n      pop\n      jump\t// out\n        /* \"#utility.yul\":2518:2635   */\n    tag_46:\n        /* \"#utility.yul\":2627:2628   */\n      0x00\n        /* \"#utility.yul\":2624:2625   */\n      dup1\n        /* \"#utility.yul\":2617:2629   */\n      revert\n        /* \"#utility.yul\":2641:2758   */\n    tag_47:\n        /* \"#utility.yul\":2750:2751   */\n      0x00\n        /* \"#utility.yul\":2747:2748   */\n      dup1\n        /* \"#utility.yul\":2740:2752   */\n      revert\n        /* \"#utility.yul\":2764:2944   */\n    tag_48:\n        /* \"#utility.yul\":2812:2889   */\n      0x4e487b7100000000000000000000000000000000000000000000000000000000\n        /* \"#utility.yul\":2809:2810   */\n      0x00\n        /* \"#utility.yul\":2802:2890   */\n      mstore\n        /* \"#utility.yul\":2909:2913   */\n      0x41\n        /* \"#utility.yul\":2906:2907   */\n      0x04\n        /* \"#utility.yul\":2899:2914   */\n      mstore\n        /* \"#utility.yul\":2933:2937   */\n      0x24\n        /* \"#utility.yul\":2930:2931   */\n      0x00\n        /* \"#utility.yul\":2923:2938   */\n      revert\n        /* \"#utility.yul\":2950:3231   */\n    tag_49:\n        /* \"#utility.yul\":3033:3060   */\n      tag_108\n        /* \"#utility.yul\":3055:3059   */\n      dup3\n        /* \"#utility.yul\":3033:3060   */\n      tag_44\n      jump\t// in\n    tag_108:\n        /* \"#utility.yul\":3025:3031   */\n      dup2\n        /* \"#utility.yul\":3021:3061   */\n      add\n        /* \"#utility.yul\":3163:3169   */\n      dup2\n        /* \"#utility.yul\":3151:3161   */\n      dup2\n        /* \"#utility.yul\":3148:3170   */\n      lt\n        /* \"#utility.yul\":3127:3145   */\n      0xffffffffffffffff\n        /* \"#utility.yul\":3115:3125   */\n      dup3\n        /* \"#utility.yul\":3112:3146   */\n      gt\n        /* \"#utility.yul\":3109:3171   */\n      or\n        /* \"#utility.yul\":3106:3194   */\n      iszero\n      tag_109\n      jumpi\n        /* \"#utility.yul\":3174:3192   */\n      tag_110\n      tag_48\n      jump\t// in\n    tag_110:\n        /* \"#utility.yul\":3106:3194   */\n    tag_109:\n        /* \"#utility.yul\":3214:3224   */\n      dup1\n        /* \"#utility.yul\":3210:3212   */\n      0x40\n        /* \"#utility.yul\":3203:3225   */\n      mstore\n        /* \"#utility.yul\":2993:3231   */\n      pop\n        /* \"#utility.yul\":2950:3231   */\n      pop\n      pop\n      jump\t// out\n        /* \"#utility.yul\":3237:3366   */\n    tag_50:\n        /* \"#utility.yul\":3271:3277   */\n      0x00\n        /* \"#utility.yul\":3298:3318   */\n      tag_112\n      tag_34\n      jump\t// in\n    tag_112:\n        /* \"#utility.yul\":3288:3318   */\n      swap1\n      pop\n        /* \"#utility.yul\":3327:3360   */\n      tag_113\n        /* \"#utility.yul\":3355:3359   */\n      dup3\n        /* \"#utility.yul\":3347:3353   */\n      dup3\n        /* \"#utility.yul\":3327:3360   */\n      tag_49\n      jump\t// in\n    tag_113:\n        /* \"#utility.yul\":3237:3366   */\n      swap2\n      swap1\n      pop\n      jump\t// out\n        /* \"#utility.yul\":3372:3680   */\n    tag_51:\n        /* \"#utility.yul\":3434:3438   */\n      0x00\n        /* \"#utility.yul\":3524:3542   */\n      0xffffffffffffffff\n        /* \"#utility.yul\":3516:3522   */\n      dup3\n        /* \"#utility.yul\":3513:3543   */\n      gt\n        /* \"#utility.yul\":3510:3566   */\n      iszero\n      tag_115\n      jumpi\n        /* \"#utility.yul\":3546:3564   */\n      tag_116\n      tag_48\n      jump\t// in\n    tag_116:\n        /* \"#utility.yul\":3510:3566   */\n    tag_115:\n        /* \"#utility.yul\":3584:3613   */\n      tag_117\n        /* \"#utility.yul\":3606:3612   */\n      dup3\n        /* \"#utility.yul\":3584:3613   */\n      tag_44\n      jump\t// in\n    tag_117:\n        /* \"#utility.yul\":3576:3613   */\n      swap1\n      pop\n        /* \"#utility.yul\":3668:3672   */\n      0x20\n        /* \"#utility.yul\":3662:3666   */\n      dup2\n        /* \"#utility.yul\":3658:3673   */\n      add\n        /* \"#utility.yul\":3650:3673   */\n      swap1\n      pop\n        /* \"#utility.yul\":3372:3680   */\n      swap2\n      swap1\n      pop\n      jump\t// out\n        /* \"#utility.yul\":3686:3832   */\n    tag_52:\n        /* \"#utility.yul\":3783:3789   */\n      dup3\n        /* \"#utility.yul\":3778:3781   */\n      dup2\n        /* \"#utility.yul\":3773:3776   */\n      dup4\n        /* \"#utility.yul\":3760:3790   */\n      calldatacopy\n        /* \"#utility.yul\":3824:3825   */\n      0x00\n        /* \"#utility.yul\":3815:3821   */\n      dup4\n        /* \"#utility.yul\":3810:3813   */\n      dup4\n        /* \"#utility.yul\":3806:3822   */\n      add\n        /* \"#utility.yul\":3799:3826   */\n      mstore\n        /* \"#utility.yul\":3686:3832   */\n      pop\n      pop\n      pop\n      jump\t// out\n        /* \"#utility.yul\":3838:4263   */\n    tag_53:\n        /* \"#utility.yul\":3916:3921   */\n      0x00\n        /* \"#utility.yul\":3941:4007   */\n      tag_120\n        /* \"#utility.yul\":3957:4006   */\n      tag_121\n        /* \"#utility.yul\":3999:4005   */\n      dup5\n        /* \"#utility.yul\":3957:4006   */\n      tag_51\n      jump\t// in\n    tag_121:\n        /* \"#utility.yul\":3941:4007   */\n      tag_50\n      jump\t// in\n    tag_120:\n        /* \"#utility.yul\":3932:4007   */\n      swap1\n      pop\n        /* \"#utility.yul\":4030:4036   */\n      dup3\n        /* \"#utility.yul\":4023:4028   */\n      dup2\n        /* \"#utility.yul\":4016:4037   */\n      mstore\n        /* \"#utility.yul\":4068:4072   */\n      0x20\n        /* \"#utility.yul\":4061:4066   */\n      dup2\n        /* \"#utility.yul\":4057:4073   */\n      add\n        /* \"#utility.yul\":4106:4109   */\n      dup5\n        /* \"#utility.yul\":4097:4103   */\n      dup5\n        /* \"#utility.yul\":4092:4095   */\n      dup5\n        /* \"#utility.yul\":4088:4104   */\n      add\n        /* \"#utility.yul\":4085:4110   */\n      gt\n        /* \"#utility.yul\":4082:4194   */\n      iszero\n      tag_122\n      jumpi\n        /* \"#utility.yul\":4113:4192   */\n      tag_123\n      tag_47\n      jump\t// in\n    tag_123:\n        /* \"#utility.yul\":4082:4194   */\n    tag_122:\n        /* \"#utility.yul\":4203:4257   */\n      tag_124\n        /* \"#utility.yul\":4250:4256   */\n      dup5\n        /* \"#utility.yul\":4245:4248   */\n      dup3\n        /* \"#utility.yul\":4240:4243   */\n      dup6\n        /* \"#utility.yul\":4203:4257   */\n      tag_52\n      jump\t// in\n    tag_124:\n        /* \"#utility.yul\":3922:4263   */\n      pop\n        /* \"#utility.yul\":3838:4263   */\n      swap4\n      swap3\n      pop\n      pop\n      pop\n      jump\t// out\n        /* \"#utility.yul\":4283:4623   */\n    tag_54:\n        /* \"#utility.yul\":4339:4344   */\n      0x00\n        /* \"#utility.yul\":4388:4391   */\n      dup3\n        /* \"#utility.yul\":4381:4385   */\n      0x1f\n        /* \"#utility.yul\":4373:4379   */\n      dup4\n        /* \"#utility.yul\":4369:4386   */\n      add\n        /* \"#utility.yul\":4365:4392   */\n      slt\n        /* \"#utility.yul\":4355:4477   */\n      tag_126\n      jumpi\n        /* \"#utility.yul\":4396:4475   */\n      tag_127\n      tag_46\n      jump\t// in\n    tag_127:\n        /* \"#utility.yul\":4355:4477   */\n    tag_126:\n        /* \"#utility.yul\":4513:4519   */\n      dup2\n        /* \"#utility.yul\":4500:4520   */\n      calldataload\n        /* \"#utility.yul\":4538:4617   */\n      tag_128\n        /* \"#utility.yul\":4613:4616   */\n      dup5\n        /* \"#utility.yul\":4605:4611   */\n      dup3\n        /* \"#utility.yul\":4598:4602   */\n      0x20\n        /* \"#utility.yul\":4590:4596   */\n      dup7\n        /* \"#utility.yul\":4586:4603   */\n      add\n        /* \"#utility.yul\":4538:4617   */\n      tag_53\n      jump\t// in\n    tag_128:\n        /* \"#utility.yul\":4529:4617   */\n      swap2\n      pop\n        /* \"#utility.yul\":4345:4623   */\n      pop\n        /* \"#utility.yul\":4283:4623   */\n      swap3\n      swap2\n      pop\n      pop\n      jump\t// out\n        /* \"#utility.yul\":4629:5138   */\n    tag_14:\n        /* \"#utility.yul\":4698:4704   */\n      0x00\n        /* \"#utility.yul\":4747:4749   */\n      0x20\n        /* \"#utility.yul\":4735:4744   */\n      dup3\n        /* \"#utility.yul\":4726:4733   */\n      dup5\n        /* \"#utility.yul\":4722:4745   */\n      sub\n        /* \"#utility.yul\":4718:4750   */\n      slt\n        /* \"#utility.yul\":4715:4834   */\n      iszero\n      tag_130\n      jumpi\n        /* \"#utility.yul\":4753:4832   */\n      tag_131\n      tag_35\n      jump\t// in\n    tag_131:\n        /* \"#utility.yul\":4715:4834   */\n    tag_130:\n        /* \"#utility.yul\":4901:4902   */\n      0x00\n        /* \"#utility.yul\":4890:4899   */\n      dup3\n        /* \"#utility.yul\":4886:4903   */\n      add\n        /* \"#utility.yul\":4873:4904   */\n      calldataload\n        /* \"#utility.yul\":4931:4949   */\n      0xffffffffffffffff\n        /* \"#utility.yul\":4923:4929   */\n      dup2\n        /* \"#utility.yul\":4920:4950   */\n      gt\n        /* \"#utility.yul\":4917:5034   */\n      iszero\n      tag_132\n      jumpi\n        /* \"#utility.yul\":4953:5032   */\n      tag_133\n      tag_36\n      jump\t// in\n    tag_133:\n        /* \"#utility.yul\":4917:5034   */\n    tag_132:\n        /* \"#utility.yul\":5058:5121   */\n      tag_134\n        /* \"#utility.yul\":5113:5120   */\n      dup5\n        /* \"#utility.yul\":5104:5110   */\n      dup3\n        /* \"#utility.yul\":5093:5102   */\n      dup6\n        /* \"#utility.yul\":5089:5111   */\n      add\n        /* \"#utility.yul\":5058:5121   */\n      tag_54\n      jump\t// in\n    tag_134:\n        /* \"#utility.yul\":5048:5121   */\n      swap2\n      pop\n        /* \"#utility.yul\":4844:5131   */\n      pop\n        /* \"#utility.yul\":4629:5138   */\n      swap3\n      swap2\n      pop\n      pop\n      jump\t// out\n        /* \"#utility.yul\":5144:5234   */\n    tag_55:\n        /* \"#utility.yul\":5178:5185   */\n      0x00\n        /* \"#utility.yul\":5221:5226   */\n      dup2\n        /* \"#utility.yul\":5214:5227   */\n      iszero\n        /* \"#utility.yul\":5207:5228   */\n      iszero\n        /* \"#utility.yul\":5196:5228   */\n      swap1\n      pop\n        /* \"#utility.yul\":5144:5234   */\n      swap2\n      swap1\n      pop\n      jump\t// out\n        /* \"#utility.yul\":5240:5349   */\n    tag_56:\n        /* \"#utility.yul\":5321:5342   */\n      tag_137\n        /* \"#utility.yul\":5336:5341   */\n      dup2\n        /* \"#utility.yul\":5321:5342   */\n      tag_55\n      jump\t// in\n    tag_137:\n        /* \"#utility.yul\":5316:5319   */\n      dup3\n        /* \"#utility.yul\":5309:5343   */\n      mstore\n        /* \"#utility.yul\":5240:5349   */\n      pop\n      pop\n      jump\t// out\n        /* \"#utility.yul\":5355:5565   */\n    tag_20:\n        /* \"#utility.yul\":5442:5446   */\n      0x00\n        /* \"#utility.yul\":5480:5482   */\n      0x20\n        /* \"#utility.yul\":5469:5478   */\n      dup3\n        /* \"#utility.yul\":5465:5483   */\n      add\n        /* \"#utility.yul\":5457:5483   */\n      swap1\n      pop\n        /* \"#utility.yul\":5493:5558   */\n      tag_139\n        /* \"#utility.yul\":5555:5556   */\n      0x00\n        /* \"#utility.yul\":5544:5553   */\n      dup4\n        /* \"#utility.yul\":5540:5557   */\n      add\n        /* \"#utility.yul\":5531:5537   */\n      dup5\n        /* \"#utility.yul\":5493:5558   */\n      tag_56\n      jump\t// in\n    tag_139:\n        /* \"#utility.yul\":5355:5565   */\n      swap3\n      swap2\n      pop\n      pop\n      jump\t// out\n        /* \"#utility.yul\":5571:5751   */\n    tag_57:\n        /* \"#utility.yul\":5619:5696   */\n      0x4e487b7100000000000000000000000000000000000000000000000000000000\n        /* \"#utility.yul\":5616:5617   */\n      0x00\n        /* \"#utility.yul\":5609:5697   */\n      mstore\n        /* \"#utility.yul\":5716:5720   */\n      0x22\n        /* \"#utility.yul\":5713:5714   */\n      0x04\n        /* \"#utility.yul\":5706:5721   */\n      mstore\n        /* \"#utility.yul\":5740:5744   */\n      0x24\n        /* \"#utility.yul\":5737:5738   */\n      0x00\n        /* \"#utility.yul\":5730:5745   */\n      revert\n        /* \"#utility.yul\":5757:6077   */\n    tag_23:\n        /* \"#utility.yul\":5801:5807   */\n      0x00\n        /* \"#utility.yul\":5838:5839   */\n      0x02\n        /* \"#utility.yul\":5832:5836   */\n      dup3\n        /* \"#utility.yul\":5828:5840   */\n      div\n        /* \"#utility.yul\":5818:5840   */\n      swap1\n      pop\n        /* \"#utility.yul\":5885:5886   */\n      0x01\n        /* \"#utility.yul\":5879:5883   */\n      dup3\n        /* \"#utility.yul\":5875:5887   */\n      and\n        /* \"#utility.yul\":5906:5924   */\n      dup1\n        /* \"#utility.yul\":5896:5977   */\n      tag_142\n      jumpi\n        /* \"#utility.yul\":5962:5966   */\n      0x7f\n        /* \"#utility.yul\":5954:5960   */\n      dup3\n        /* \"#utility.yul\":5950:5967   */\n      and\n        /* \"#utility.yul\":5940:5967   */\n      swap2\n      pop\n        /* \"#utility.yul\":5896:5977   */\n    tag_142:\n        /* \"#utility.yul\":6024:6026   */\n      0x20\n        /* \"#utility.yul\":6016:6022   */\n      dup3\n        /* \"#utility.yul\":6013:6027   */\n      lt\n        /* \"#utility.yul\":5993:6011   */\n      dup2\n        /* \"#utility.yul\":5990:6028   */\n      sub\n        /* \"#utility.yul\":5987:6071   */\n      tag_143\n      jumpi\n        /* \"#utility.yul\":6043:6061   */\n      tag_144\n      tag_57\n      jump\t// in\n    tag_144:\n        /* \"#utility.yul\":5987:6071   */\n    tag_143:\n        /* \"#utility.yul\":5808:6077   */\n      pop\n        /* \"#utility.yul\":5757:6077   */\n      swap2\n      swap1\n      pop\n      jump\t// out\n        /* \"#utility.yul\":6083:6224   */\n    tag_58:\n        /* \"#utility.yul\":6132:6136   */\n      0x00\n        /* \"#utility.yul\":6155:6158   */\n      dup2\n        /* \"#utility.yul\":6147:6158   */\n      swap1\n      pop\n        /* \"#utility.yul\":6178:6181   */\n      dup2\n        /* \"#utility.yul\":6175:6176   */\n      0x00\n        /* \"#utility.yul\":6168:6182   */\n      mstore\n        /* \"#utility.yul\":6212:6216   */\n      0x20\n        /* \"#utility.yul\":6209:6210   */\n      0x00\n        /* \"#utility.yul\":6199:6217   */\n      keccak256\n        /* \"#utility.yul\":6191:6217   */\n      swap1\n      pop\n        /* \"#utility.yul\":6083:6224   */\n      swap2\n      swap1\n      pop\n      jump\t// out\n        /* \"#utility.yul\":6230:6323   */\n    tag_59:\n        /* \"#utility.yul\":6267:6273   */\n      0x00\n        /* \"#utility.yul\":6314:6316   */\n      0x20\n        /* \"#utility.yul\":6309:6311   */\n      0x1f\n        /* \"#utility.yul\":6302:6307   */\n      dup4\n        /* \"#utility.yul\":6298:6312   */\n      add\n        /* \"#utility.yul\":6294:6317   */\n      div\n        /* \"#utility.yul\":6284:6317   */\n      swap1\n      pop\n        /* \"#utility.yul\":6230:6323   */\n      swap2\n      swap1\n      pop\n      jump\t// out\n        /* \"#utility.yul\":6329:6436   */\n    tag_60:\n        /* \"#utility.yul\":6373:6381   */\n      0x00\n        /* \"#utility.yul\":6423:6428   */\n      dup3\n        /* \"#utility.yul\":6417:6421   */\n      dup3\n        /* \"#utility.yul\":6413:6429   */\n      shl\n        /* \"#utility.yul\":6392:6429   */\n      swap1\n      pop\n        /* \"#utility.yul\":6329:6436   */\n      swap3\n      swap2\n      pop\n      pop\n      jump\t// out\n        /* \"#utility.yul\":6442:6835   */\n    tag_61:\n        /* \"#utility.yul\":6511:6517   */\n      0x00\n        /* \"#utility.yul\":6561:6562   */\n      0x08\n        /* \"#utility.yul\":6549:6559   */\n      dup4\n        /* \"#utility.yul\":6545:6563   */\n      mul\n        /* \"#utility.yul\":6584:6681   */\n      tag_149\n        /* \"#utility.yul\":6614:6680   */\n      0xffffffffffffffffffffffffffffffffffffffffffffffffffffffffffffffff\n        /* \"#utility.yul\":6603:6612   */\n      dup3\n        /* \"#utility.yul\":6584:6681   */\n      tag_60\n      jump\t// in\n    tag_149:\n        /* \"#utility.yul\":6702:6741   */\n      tag_150\n        /* \"#utility.yul\":6732:6740   */\n      dup7\n        /* \"#utility.yul\":6721:6730   */\n      dup4\n        /* \"#utility.yul\":6702:6741   */\n      tag_60\n      jump\t// in\n    tag_150:\n        /* \"#utility.yul\":6690:6741   */\n      swap6\n      pop\n        /* \"#utility.yul\":6774:6778   */\n      dup1\n        /* \"#utility.yul\":6770:6779   */\n      not\n        /* \"#utility.yul\":6763:6768   */\n      dup5\n        /* \"#utility.yul\":6759:6780   */\n      and\n        /* \"#utility.yul\":6750:6780   */\n      swap4\n      pop\n        /* \"#utility.yul\":6823:6827   */\n      dup1\n        /* \"#utility.yul\":6813:6821   */\n      dup7\n        /* \"#utility.yul\":6809:6828   */\n      and\n        /* \"#utility.yul\":6802:6807   */\n      dup5\n        /* \"#utility.yul\":6799:6829   */\n      or\n        /* \"#utility.yul\":6789:6829   */\n      swap3\n      pop\n        /* \"#utility.yul\":6518:6835   */\n      pop\n      pop\n        /* \"#utility.yul\":6442:6835   */\n      swap4\n      swap3\n      pop\n      pop\n      pop\n      jump\t// out\n        /* \"#utility.yul\":6841:6918   */\n    tag_62:\n        /* \"#utility.yul\":6878:6885   */\n      0x00\n        /* \"#utility.yul\":6907:6912   */\n      dup2\n        /* \"#utility.yul\":6896:6912   */\n      swap1\n      pop\n        /* \"#utility.yul\":6841:6918   */\n      swap2\n      swap1\n      pop\n      jump\t// out\n        /* \"#utility.yul\":6924:6984   */\n    tag_63:\n        /* \"#utility.yul\":6952:6955   */\n      0x00\n        /* \"#utility.yul\":6973:6978   */\n      dup2\n        /* \"#utility.yul\":6966:6978   */\n      swap1\n      pop\n        /* \"#utility.yul\":6924:6984   */\n      swap2\n      swap1\n      pop\n      jump\t// out\n        /* \"#utility.yul\":6990:7132   */\n    tag_64:\n        /* \"#utility.yul\":7040:7049   */\n      0x00\n        /* \"#utility.yul\":7073:7126   */\n      tag_154\n        /* \"#utility.yul\":7091:7125   */\n      tag_155\n        /* \"#utility.yul\":7100:7124   */\n      tag_156\n        /* \"#utility.yul\":7118:7123   */\n      dup5\n        /* \"#utility.yul\":7100:7124   */\n      tag_62\n      jump\t// in\n    tag_156:\n        /* \"#utility.yul\":7091:7125   */\n      tag_63\n      jump\t// in\n    tag_155:\n        /* \"#utility.yul\":7073:7126   */\n      tag_62\n      jump\t// in\n    tag_154:\n        /* \"#utility.yul\":7060:7126   */\n      swap1\n      pop\n        /* \"#utility.yul\":6990:7132   */\n      swap2\n      swap1\n      pop\n      jump\t// out\n        /* \"#utility.yul\":7138:7213   */\n    tag_65:\n        /* \"#utility.yul\":7181:7184   */\n      0x00\n        /* \"#utility.yul\":7202:7207   */\n      dup2\n        /* \"#utility.yul\":7195:7207   */\n      swap1\n      pop\n        /* \"#utility.yul\":7138:7213   */\n      swap2\n      swap1\n      pop\n      jump\t// out\n        /* \"#utility.yul\":7219:7488   */\n    tag_66:\n        /* \"#utility.yul\":7329:7368   */\n      tag_159\n        /* \"#utility.yul\":7360:7367   */\n      dup4\n        /* \"#utility.yul\":7329:7368   */\n      tag_64\n      jump\t// in\n    tag_159:\n        /* \"#utility.yul\":7390:7481   */\n      tag_160\n        /* \"#utility.yul\":7439:7480   */\n      tag_161\n        /* \"#utility.yul\":7463:7479   */\n      dup3\n        /* \"#utility.yul\":7439:7480   */\n      tag_65\n      jump\t// in\n    tag_161:\n        /* \"#utility.yul\":7431:7437   */\n      dup5\n        /* \"#utility.yul\":7424:7428   */\n      dup5\n        /* \"#utility.yul\":7418:7429   */\n      sload\n        /* \"#utility.yul\":7390:7481   */\n      tag_61\n      jump\t// in\n    tag_160:\n        /* \"#utility.yul\":7384:7388   */\n      dup3\n        /* \"#utility.yul\":7377:7482   */\n      sstore\n        /* \"#utility.yul\":7295:7488   */\n      pop\n        /* \"#utility.yul\":7219:7488   */\n      pop\n      pop\n      pop\n      jump\t// out\n        /* \"#utility.yul\":7494:7567   */\n    tag_67:\n        /* \"#utility.yul\":7539:7542   */\n      0x00\n        /* \"#utility.yul\":7494:7567   */\n      swap1\n      jump\t// out\n        /* \"#utility.yul\":7573:7762   */\n    tag_68:\n        /* \"#utility.yul\":7650:7682   */\n      tag_164\n      tag_67\n      jump\t// in\n    tag_164:\n        /* \"#utility.yul\":7691:7756   */\n      tag_165\n        /* \"#utility.yul\":7749:7755   */\n      dup2\n        /* \"#utility.yul\":7741:7747   */\n      dup5\n        /* \"#utility.yul\":7735:7739   */\n      dup5\n        /* \"#utility.yul\":7691:7756   */\n      tag_66\n      jump\t// in\n    tag_165:\n        /* \"#utility.yul\":7626:7762   */\n      pop\n        /* \"#utility.yul\":7573:7762   */\n      pop\n      pop\n      jump\t// out\n        /* \"#utility.yul\":7768:7954   */\n    tag_69:\n        /* \"#utility.yul\":7828:7948   */\n    tag_167:\n        /* \"#utility.yul\":7845:7848   */\n      dup2\n        /* \"#utility.yul\":7838:7843   */\n      dup2\n        /* \"#utility.yul\":7835:7849   */\n      lt\n        /* \"#utility.yul\":7828:7948   */\n      iszero\n      tag_169\n      jumpi\n        /* \"#utility.yul\":7899:7938   */\n      tag_170\n        /* \"#utility.yul\":7936:7937   */\n      0x00\n        /* \"#utility.yul\":7929:7934   */\n      dup3\n        /* \"#utility.yul\":7899:7938   */\n      tag_68\n      jump\t// in\n    tag_170:\n        /* \"#utility.yul\":7872:7873   */\n      0x01\n        /* \"#utility.yul\":7865:7870   */\n      dup2\n        /* \"#utility.yul\":7861:7874   */\n      add\n        /* \"#utility.yul\":7852:7874   */\n      swap1\n      pop\n        /* \"#utility.yul\":7828:7948   */\n      jump(tag_167)\n    tag_169:\n        /* \"#utility.yul\":7768:7954   */\n      pop\n      pop\n      jump\t// out\n        /* \"#utility.yul\":7960:8503   */\n    tag_70:\n        /* \"#utility.yul\":8061:8063   */\n      0x1f\n        /* \"#utility.yul\":8056:8059   */\n      dup3\n        /* \"#utility.yul\":8053:8064   */\n      gt\n        /* \"#utility.yul\":8050:8496   */\n      iszero\n      tag_172\n      jumpi\n        /* \"#utility.yul\":8095:8133   */\n      tag_173\n        /* \"#utility.yul\":8127:8132   */\n      dup2\n        /* \"#utility.yul\":8095:8133   */\n      tag_58\n      jump\t// in\n    tag_173:\n        /* \"#utility.yul\":8179:8208   */\n      tag_174\n        /* \"#utility.yul\":8197:8207   */\n      dup5\n        /* \"#utility.yul\":8179:8208   */\n      tag_59\n      jump\t// in\n    tag_174:\n        /* \"#utility.yul\":8169:8177   */\n      dup2\n        /* \"#utility.yul\":8165:8209   */\n      add\n        /* \"#utility.yul\":8362:8364   */\n      0x20\n        /* \"#utility.yul\":8350:8360   */\n      dup6\n        /* \"#utility.yul\":8347:8365   */\n      lt\n        /* \"#utility.yul\":8344:8393   */\n      iszero\n      tag_175\n      jumpi\n        /* \"#utility.yul\":8383:8391   */\n      dup2\n        /* \"#utility.yul\":8368:8391   */\n      swap1\n      pop\n        /* \"#utility.yul\":8344:8393   */\n    tag_175:\n        /* \"#utility.yul\":8406:8486   */\n      tag_176\n        /* \"#utility.yul\":8462:8484   */\n      tag_177\n        /* \"#utility.yul\":8480:8483   */\n      dup6\n        /* \"#utility.yul\":8462:8484   */\n      tag_59\n      jump\t// in\n    tag_177:\n        /* \"#utility.yul\":8452:8460   */\n      dup4\n        /* \"#utility.yul\":8448:8485   */\n      add\n        /* \"#utility.yul\":8435:8446   */\n      dup3\n        /* \"#utility.yul\":8406:8486   */\n      tag_69\n      jump\t// in\n    tag_176:\n        /* \"#utility.yul\":8065:8496   */\n      pop\n      pop\n        /* \"#utility.yul\":8050:8496   */\n    tag_172:\n        /* \"#utility.yul\":7960:8503   */\n      pop\n      pop\n      pop\n      jump\t// out\n        /* \"#utility.yul\":8509:8626   */\n    tag_71:\n        /* \"#utility.yul\":8563:8571   */\n      0x00\n        /* \"#utility.yul\":8613:8618   */\n      dup3\n        /* \"#utility.yul\":8607:8611   */\n      dup3\n        /* \"#utility.yul\":8603:8619   */\n      shr\n        /* \"#utility.yul\":8582:8619   */\n      swap1\n      pop\n        /* \"#utility.yul\":8509:8626   */\n      swap3\n      swap2\n      pop\n      pop\n      jump\t// out\n        /* \"#utility.yul\":8632:8801   */\n    tag_72:\n        /* \"#utility.yul\":8676:8682   */\n      0x00\n        /* \"#utility.yul\":8709:8760   */\n      tag_180\n        /* \"#utility.yul\":8757:8758   */\n      0x00\n        /* \"#utility.yul\":8753:8759   */\n      not\n        /* \"#utility.yul\":8745:8750   */\n      dup5\n        /* \"#utility.yul\":8742:8743   */\n      0x08\n        /* \"#utility.yul\":8738:8751   */\n      mul\n        /* \"#utility.yul\":8709:8760   */\n      tag_71\n      jump\t// in\n    tag_180:\n        /* \"#utility.yul\":8705:8761   */\n      not\n        /* \"#utility.yul\":8790:8794   */\n      dup1\n        /* \"#utility.yul\":8784:8788   */\n      dup4\n        /* \"#utility.yul\":8780:8795   */\n      and\n        /* \"#utility.yul\":8770:8795   */\n      swap2\n      pop\n        /* \"#utility.yul\":8683:8801   */\n      pop\n        /* \"#utility.yul\":8632:8801   */\n      swap3\n      swap2\n      pop\n      pop\n      jump\t// out\n        /* \"#utility.yul\":8806:9101   */\n    tag_73:\n        /* \"#utility.yul\":8882:8886   */\n      0x00\n        /* \"#utility.yul\":9028:9057   */\n      tag_182\n        /* \"#utility.yul\":9053:9056   */\n      dup4\n        /* \"#utility.yul\":9047:9051   */\n      dup4\n        /* \"#utility.yul\":9028:9057   */\n      tag_72\n      jump\t// in\n    tag_182:\n        /* \"#utility.yul\":9020:9057   */\n      swap2\n      pop\n        /* \"#utility.yul\":9090:9093   */\n      dup3\n        /* \"#utility.yul\":9087:9088   */\n      0x02\n        /* \"#utility.yul\":9083:9094   */\n      mul\n        /* \"#utility.yul\":9077:9081   */\n      dup3\n        /* \"#utility.yul\":9074:9095   */\n      or\n        /* \"#utility.yul\":9066:9095   */\n      swap1\n      pop\n        /* \"#utility.yul\":8806:9101   */\n      swap3\n      swap2\n      pop\n      pop\n      jump\t// out\n        /* \"#utility.yul\":9106:10501   */\n    tag_32:\n        /* \"#utility.yul\":9223:9260   */\n      tag_184\n        /* \"#utility.yul\":9256:9259   */\n      dup3\n        /* \"#utility.yul\":9223:9260   */\n      tag_41\n      jump\t// in\n    tag_184:\n        /* \"#utility.yul\":9325:9343   */\n      0xffffffffffffffff\n        /* \"#utility.yul\":9317:9323   */\n      dup2\n        /* \"#utility.yul\":9314:9344   */\n      gt\n        /* \"#utility.yul\":9311:9367   */\n      iszero\n      tag_185\n      jumpi\n        /* \"#utility.yul\":9347:9365   */\n      tag_186\n      tag_48\n      jump\t// in\n    tag_186:\n        /* \"#utility.yul\":9311:9367   */\n    tag_185:\n        /* \"#utility.yul\":9391:9429   */\n      tag_187\n        /* \"#utility.yul\":9423:9427   */\n      dup3\n        /* \"#utility.yul\":9417:9428   */\n      sload\n        /* \"#utility.yul\":9391:9429   */\n      tag_23\n      jump\t// in\n    tag_187:\n        /* \"#utility.yul\":9476:9543   */\n      tag_188\n        /* \"#utility.yul\":9536:9542   */\n      dup3\n        /* \"#utility.yul\":9528:9534   */\n      dup3\n        /* \"#utility.yul\":9522:9526   */\n      dup6\n        /* \"#utility.yul\":9476:9543   */\n      tag_70\n      jump\t// in\n    tag_188:\n        /* \"#utility.yul\":9570:9571   */\n      0x00\n        /* \"#utility.yul\":9594:9598   */\n      0x20\n        /* \"#utility.yul\":9581:9598   */\n      swap1\n      pop\n        /* \"#utility.yul\":9626:9628   */\n      0x1f\n        /* \"#utility.yul\":9618:9624   */\n      dup4\n        /* \"#utility.yul\":9615:9629   */\n      gt\n        /* \"#utility.yul\":9643:9644   */\n      0x01\n        /* \"#utility.yul\":9638:10256   */\n      dup2\n      eq\n      tag_190\n      jumpi\n        /* \"#utility.yul\":10300:10301   */\n      0x00\n        /* \"#utility.yul\":10317:10323   */\n      dup5\n        /* \"#utility.yul\":10314:10391   */\n      iszero\n      tag_191\n      jumpi\n        /* \"#utility.yul\":10366:10375   */\n      dup3\n        /* \"#utility.yul\":10361:10364   */\n      dup8\n        /* \"#utility.yul\":10357:10376   */\n      add\n        /* \"#utility.yul\":10351:10377   */\n      mload\n        /* \"#utility.yul\":10342:10377   */\n      swap1\n      pop\n        /* \"#utility.yul\":10314:10391   */\n    tag_191:\n        /* \"#utility.yul\":10417:10484   */\n      tag_192\n        /* \"#utility.yul\":10477:10483   */\n      dup6\n        /* \"#utility.yul\":10470:10475   */\n      dup3\n        /* \"#utility.yul\":10417:10484   */\n      tag_73\n      jump\t// in\n    tag_192:\n        /* \"#utility.yul\":10411:10415   */\n      dup7\n        /* \"#utility.yul\":10404:10485   */\n      sstore\n        /* \"#utility.yul\":10273:10495   */\n      pop\n        /* \"#utility.yul\":9608:10495   */\n      jump(tag_189)\n        /* \"#utility.yul\":9638:10256   */\n    tag_190:\n        /* \"#utility.yul\":9690:9694   */\n      0x1f\n        /* \"#utility.yul\":9686:9695   */\n      not\n        /* \"#utility.yul\":9678:9684   */\n      dup5\n        /* \"#utility.yul\":9674:9696   */\n      and\n        /* \"#utility.yul\":9724:9761   */\n      tag_193\n        /* \"#utility.yul\":9756:9760   */\n      dup7\n        /* \"#utility.yul\":9724:9761   */\n      tag_58\n      jump\t// in\n    tag_193:\n        /* \"#utility.yul\":9783:9784   */\n      0x00\n        /* \"#utility.yul\":9797:10005   */\n    tag_194:\n        /* \"#utility.yul\":9811:9818   */\n      dup3\n        /* \"#utility.yul\":9808:9809   */\n      dup2\n        /* \"#utility.yul\":9805:9819   */\n      lt\n        /* \"#utility.yul\":9797:10005   */\n      iszero\n      tag_196\n      jumpi\n        /* \"#utility.yul\":9890:9899   */\n      dup5\n        /* \"#utility.yul\":9885:9888   */\n      dup10\n        /* \"#utility.yul\":9881:9900   */\n      add\n        /* \"#utility.yul\":9875:9901   */\n      mload\n        /* \"#utility.yul\":9867:9873   */\n      dup3\n        /* \"#utility.yul\":9860:9902   */\n      sstore\n        /* \"#utility.yul\":9941:9942   */\n      0x01\n        /* \"#utility.yul\":9933:9939   */\n      dup3\n        /* \"#utility.yul\":9929:9943   */\n      add\n        /* \"#utility.yul\":9919:9943   */\n      swap2\n      pop\n        /* \"#utility.yul\":9988:9990   */\n      0x20\n        /* \"#utility.yul\":9977:9986   */\n      dup6\n        /* \"#utility.yul\":9973:9991   */\n      add\n        /* \"#utility.yul\":9960:9991   */\n      swap5\n      pop\n        /* \"#utility.yul\":9834:9838   */\n      0x20\n        /* \"#utility.yul\":9831:9832   */\n      dup2\n        /* \"#utility.yul\":9827:9839   */\n      add\n        /* \"#utility.yul\":9822:9839   */\n      swap1\n      pop\n        /* \"#utility.yul\":9797:10005   */\n      jump(tag_194)\n    tag_196:\n        /* \"#utility.yul\":10033:10039   */\n      dup7\n        /* \"#utility.yul\":10024:10031   */\n      dup4\n        /* \"#utility.yul\":10021:10040   */\n      lt\n        /* \"#utility.yul\":10018:10197   */\n      iszero\n      tag_197\n      jumpi\n        /* \"#utility.yul\":10091:10100   */\n      dup5\n        /* \"#utility.yul\":10086:10089   */\n      dup10\n        /* \"#utility.yul\":10082:10101   */\n      add\n        /* \"#utility.yul\":10076:10102   */\n      mload\n        /* \"#utility.yul\":10134:10182   */\n      tag_198\n        /* \"#utility.yul\":10176:10180   */\n      0x1f\n        /* \"#utility.yul\":10168:10174   */\n      dup10\n        /* \"#utility.yul\":10164:10181   */\n      and\n        /* \"#utility.yul\":10153:10162   */\n      dup3\n        /* \"#utility.yul\":10134:10182   */\n      tag_72\n      jump\t// in\n    tag_198:\n        /* \"#utility.yul\":10126:10132   */\n      dup4\n        /* \"#utility.yul\":10119:10183   */\n      sstore\n        /* \"#utility.yul\":10041:10197   */\n      pop\n        /* \"#utility.yul\":10018:10197   */\n    tag_197:\n        /* \"#utility.yul\":10243:10244   */\n      0x01\n        /* \"#utility.yul\":10239:10240   */\n      0x02\n        /* \"#utility.yul\":10231:10237   */\n      dup9\n        /* \"#utility.yul\":10227:10241   */\n      mul\n        /* \"#utility.yul\":10223:10245   */\n      add\n        /* \"#utility.yul\":10217:10221   */\n      dup9\n        /* \"#utility.yul\":10210:10246   */\n      sstore\n        /* \"#utility.yul\":9645:10256   */\n      pop\n      pop\n      pop\n        /* \"#utility.yul\":9608:10495   */\n    tag_189:\n      pop\n        /* \"#utility.yul\":9198:10501   */\n      pop\n      pop\n      pop\n        /* \"#utility.yul\":9106:10501   */\n      pop\n      pop\n      jump\t// out\n\n    auxdata: 0xa2646970667358221220cf975f3e5883019e33250c3196513e9bb5a817fd3df1c8b0be49eda069d5b6ab64736f6c63430008130033\n}\n",
				"bytecode": {
					"linkReferences": {},
					"object": "608060405234801561001057600080fd5b50610970806100206000396000f3fe608060405234801561001057600080fd5b50600436106100415760003560e01c8063c23cb92a14610046578063e3de170314610076578063f93ce75814610092575b600080fd5b610060600480360381019061005b91906103bf565b6100c2565b60405161006d919061047c565b60405180910390f35b610090600480360381019061008b91906105d3565b610192565b005b6100ac60048036038101906100a791906103bf565b6102f7565b6040516100b99190610637565b60405180910390f35b60606000808373ffffffffffffffffffffffffffffffffffffffff1673ffffffffffffffffffffffffffffffffffffffff168152602001908152602001600020805461010d90610681565b80601f016020809104026020016040519081016040528092919081815260200182805461013990610681565b80156101865780601f1061015b57610100808354040283529160200191610186565b820191906000526020600020905b81548152906001019060200180831161016957829003601f168201915b50505050509050919050565b600160003373ffffffffffffffffffffffffffffffffffffffff1673ffffffffffffffffffffffffffffffffffffffff16815260200190815260200160002060009054906101000a900460ff1615610216576040517fdbbfdc7e00000000000000000000000000000000000000000000000000000000815260040160405180910390fd5b6000815103610251576040517fd5c5965d00000000000000000000000000000000000000000000000000000000815260040160405180910390fd5b806000803373ffffffffffffffffffffffffffffffffffffffff1673ffffffffffffffffffffffffffffffffffffffff168152602001908152602001600020908161029c9190610868565b5060018060003373ffffffffffffffffffffffffffffffffffffffff1673ffffffffffffffffffffffffffffffffffffffff16815260200190815260200160002060006101000a81548160ff02191690831515021790555050565b6000600160008373ffffffffffffffffffffffffffffffffffffffff1673ffffffffffffffffffffffffffffffffffffffff16815260200190815260200160002060009054906101000a900460ff169050919050565b6000604051905090565b600080fd5b600080fd5b600073ffffffffffffffffffffffffffffffffffffffff82169050919050565b600061038c82610361565b9050919050565b61039c81610381565b81146103a757600080fd5b50565b6000813590506103b981610393565b92915050565b6000602082840312156103d5576103d4610357565b5b60006103e3848285016103aa565b91505092915050565b600081519050919050565b600082825260208201905092915050565b60005b8381101561042657808201518184015260208101905061040b565b60008484015250505050565b6000601f19601f8301169050919050565b600061044e826103ec565b61045881856103f7565b9350610468818560208601610408565b61047181610432565b840191505092915050565b600060208201905081810360008301526104968184610443565b905092915050565b600080fd5b600080fd5b7f4e487b7100000000000000000000000000000000000000000000000000000000600052604160045260246000fd5b6104e082610432565b810181811067ffffffffffffffff821117156104ff576104fe6104a8565b5b80604052505050565b600061051261034d565b905061051e82826104d7565b919050565b600067ffffffffffffffff82111561053e5761053d6104a8565b5b61054782610432565b9050602081019050919050565b82818337600083830152505050565b600061057661057184610523565b610508565b905082815260208101848484011115610592576105916104a3565b5b61059d848285610554565b509392505050565b600082601f8301126105ba576105b961049e565b5b81356105ca848260208601610563565b91505092915050565b6000602082840312156105e9576105e8610357565b5b600082013567ffffffffffffffff8111156106075761060661035c565b5b610613848285016105a5565b91505092915050565b60008115159050919050565b6106318161061c565b82525050565b600060208201905061064c6000830184610628565b92915050565b7f4e487b7100000000000000000000000000000000000000000000000000000000600052602260045260246000fd5b6000600282049050600182168061069957607f821691505b6020821081036106ac576106ab610652565b5b50919050565b60008190508160005260206000209050919050565b60006020601f8301049050919050565b600082821b905092915050565b6000600883026107147fffffffffffffffffffffffffffffffffffffffffffffffffffffffffffffffff826106d7565b61071e86836106d7565b95508019841693508086168417925050509392505050565b6000819050919050565b6000819050919050565b600061076561076061075b84610736565b610740565b610736565b9050919050565b6000819050919050565b61077f8361074a565b61079361078b8261076c565b8484546106e4565b825550505050565b600090565b6107a861079b565b6107b3818484610776565b505050565b5b818110156107d7576107cc6000826107a0565b6001810190506107b9565b5050565b601f82111561081c576107ed816106b2565b6107f6846106c7565b81016020851015610805578190505b610819610811856106c7565b8301826107b8565b50505b505050565b600082821c905092915050565b600061083f60001984600802610821565b1980831691505092915050565b6000610858838361082e565b9150826002028217905092915050565b610871826103ec565b67ffffffffffffffff81111561088a576108896104a8565b5b6108948254610681565b61089f8282856107db565b600060209050601f8311600181146108d257600084156108c0578287015190505b6108ca858261084c565b865550610932565b601f1984166108e0866106b2565b60005b82811015610908578489015182556001820191506020850194506020810190506108e3565b868310156109255784890151610921601f89168261082e565b8355505b6001600288020188555050505b50505050505056fea2646970667358221220cf975f3e5883019e33250c3196513e9bb5a817fd3df1c8b0be49eda069d5b6ab64736f6c63430008130033",
					"opcodes": "PUSH1 0x80 PUSH1 0x40 MSTORE CALLVALUE DUP1 ISZERO PUSH2 0x10 JUMPI PUSH1 0x0 DUP1 REVERT JUMPDEST POP PUSH2 0x970 DUP1 PUSH2 0x20 PUSH1 0x0 CODECOPY PUSH1 0x0 RETURN INVALID PUSH1 0x80 PUSH1 0x40 MSTORE CALLVALUE DUP1 ISZERO PUSH2 0x10 JUMPI PUSH1 0x0 DUP1 REVERT JUMPDEST POP PUSH1 0x4 CALLDATASIZE LT PUSH2 0x41 JUMPI PUSH1 0x0 CALLDATALOAD PUSH1 0xE0 SHR DUP1 PUSH4 0xC23CB92A EQ PUSH2 0x46 JUMPI DUP1 PUSH4 0xE3DE1703 EQ PUSH2 0x76 JUMPI DUP1 PUSH4 0xF93CE758 EQ PUSH2 0x92 JUMPI JUMPDEST PUSH1 0x0 DUP1 REVERT JUMPDEST PUSH2 0x60 PUSH1 0x4 DUP1 CALLDATASIZE SUB DUP2 ADD SWAP1 PUSH2 0x5B SWAP2 SWAP1 PUSH2 0x3BF JUMP JUMPDEST PUSH2 0xC2 JUMP JUMPDEST PUSH1 0x40 MLOAD PUSH2 0x6D SWAP2 SWAP1 PUSH2 0x47C JUMP JUMPDEST PUSH1 0x40 MLOAD DUP1 SWAP2 SUB SWAP1 RETURN JUMPDEST PUSH2 0x90 PUSH1 0x4 DUP1 CALLDATASIZE SUB DUP2 ADD SWAP1 PUSH2 0x8B SWAP2 SWAP1 PUSH2 0x5D3 JUMP JUMPDEST PUSH2 0x192 JUMP JUMPDEST STOP JUMPDEST PUSH2 0xAC PUSH1 0x4 DUP1 CALLDATASIZE SUB DUP2 ADD SWAP1 PUSH2 0xA7 SWAP2 SWAP1 PUSH2 0x3BF JUMP JUMPDEST PUSH2 0x2F7 JUMP JUMPDEST PUSH1 0x40 MLOAD PUSH2 0xB9 SWAP2 SWAP1 PUSH2 0x637 JUMP JUMPDEST PUSH1 0x40 MLOAD DUP1 SWAP2 SUB SWAP1 RETURN JUMPDEST PUSH1 0x60 PUSH1 0x0 DUP1 DUP4 PUSH20 0xFFFFFFFFFFFFFFFFFFFFFFFFFFFFFFFFFFFFFFFF AND PUSH20 0xFFFFFFFFFFFFFFFFFFFFFFFFFFFFFFFFFFFFFFFF AND DUP2 MSTORE PUSH1 0x20 ADD SWAP1 DUP2 MSTORE PUSH1 0x20 ADD PUSH1 0x0 KECCAK256 DUP1 SLOAD PUSH2 0x10D SWAP1 PUSH2 0x681 JUMP JUMPDEST DUP1 PUSH1 0x1F ADD PUSH1 0x20 DUP1 SWAP2 DIV MUL PUSH1 0x20 ADD PUSH1 0x40 MLOAD SWAP1 DUP2 ADD PUSH1 0x40 MSTORE DUP1 SWAP3 SWAP2 SWAP1 DUP2 DUP2 MSTORE PUSH1 0x20 ADD DUP3 DUP1 SLOAD PUSH2 0x139 SWAP1 PUSH2 0x681 JUMP JUMPDEST DUP1 ISZERO PUSH2 0x186 JUMPI DUP1 PUSH1 0x1F LT PUSH2 0x15B JUMPI PUSH2 0x100 DUP1 DUP4 SLOAD DIV MUL DUP4 MSTORE SWAP2 PUSH1 0x20 ADD SWAP2 PUSH2 0x186 JUMP JUMPDEST DUP3 ADD SWAP2 SWAP1 PUSH1 0x0 MSTORE PUSH1 0x20 PUSH1 0x0 KECCAK256 SWAP1 JUMPDEST DUP2 SLOAD DUP2 MSTORE SWAP1 PUSH1 0x1 ADD SWAP1 PUSH1 0x20 ADD DUP1 DUP4 GT PUSH2 0x169 JUMPI DUP3 SWAP1 SUB PUSH1 0x1F AND DUP3 ADD SWAP2 JUMPDEST POP POP POP POP POP SWAP1 POP SWAP2 SWAP1 POP JUMP JUMPDEST PUSH1 0x1 PUSH1 0x0 CALLER PUSH20 0xFFFFFFFFFFFFFFFFFFFFFFFFFFFFFFFFFFFFFFFF AND PUSH20 0xFFFFFFFFFFFFFFFFFFFFFFFFFFFFFFFFFFFFFFFF AND DUP2 MSTORE PUSH1 0x20 ADD SWAP1 DUP2 MSTORE PUSH1 0x20 ADD PUSH1 0x0 KECCAK256 PUSH1 0x0 SWAP1 SLOAD SWAP1 PUSH2 0x100 EXP SWAP1 DIV PUSH1 0xFF AND ISZERO PUSH2 0x216 JUMPI PUSH1 0x40 MLOAD PUSH32 0xDBBFDC7E00000000000000000000000000000000000000000000000000000000 DUP2 MSTORE PUSH1 0x4 ADD PUSH1 0x40 MLOAD DUP1 SWAP2 SUB SWAP1 REVERT JUMPDEST PUSH1 0x0 DUP2 MLOAD SUB PUSH2 0x251 JUMPI PUSH1 0x40 MLOAD PUSH32 0xD5C5965D00000000000000000000000000000000000000000000000000000000 DUP2 MSTORE PUSH1 0x4 ADD PUSH1 0x40 MLOAD DUP1 SWAP2 SUB SWAP1 REVERT JUMPDEST DUP1 PUSH1 0x0 DUP1 CALLER PUSH20 0xFFFFFFFFFFFFFFFFFFFFFFFFFFFFFFFFFFFFFFFF AND PUSH20 0xFFFFFFFFFFFFFFFFFFFFFFFFFFFFFFFFFFFFFFFF AND DUP2 MSTORE PUSH1 0x20 ADD SWAP1 DUP2 MSTORE PUSH1 0x20 ADD PUSH1 0x0 KECCAK256 SWAP1 DUP2 PUSH2 0x29C SWAP2 SWAP1 PUSH2 0x868 JUMP JUMPDEST POP PUSH1 0x1 DUP1 PUSH1 0x0 CALLER PUSH20 0xFFFFFFFFFFFFFFFFFFFFFFFFFFFFFFFFFFFFFFFF AND PUSH20 0xFFFFFFFFFFFFFFFFFFFFFFFFFFFFFFFFFFFFFFFF AND DUP2 MSTORE PUSH1 0x20 ADD SWAP1 DUP2 MSTORE PUSH1 0x20 ADD PUSH1 0x0 KECCAK256 PUSH1 0x0 PUSH2 0x100 EXP DUP2 SLOAD DUP2 PUSH1 0xFF MUL NOT AND SWAP1 DUP4 ISZERO ISZERO MUL OR SWAP1 SSTORE POP POP JUMP JUMPDEST PUSH1 0x0 PUSH1 0x1 PUSH1 0x0 DUP4 PUSH20 0xFFFFFFFFFFFFFFFFFFFFFFFFFFFFFFFFFFFFFFFF AND PUSH20 0xFFFFFFFFFFFFFFFFFFFFFFFFFFFFFFFFFFFFFFFF AND DUP2 MSTORE PUSH1 0x20 ADD SWAP1 DUP2 MSTORE PUSH1 0x20 ADD PUSH1 0x0 KECCAK256 PUSH1 0x0 SWAP1 SLOAD SWAP1 PUSH2 0x100 EXP SWAP1 DIV PUSH1 0xFF AND SWAP1 POP SWAP2 SWAP1 POP JUMP JUMPDEST PUSH1 0x0 PUSH1 0x40 MLOAD SWAP1 POP SWAP1 JUMP JUMPDEST PUSH1 0x0 DUP1 REVERT JUMPDEST PUSH1 0x0 DUP1 REVERT JUMPDEST PUSH1 0x0 PUSH20 0xFFFFFFFFFFFFFFFFFFFFFFFFFFFFFFFFFFFFFFFF DUP3 AND SWAP1 POP SWAP2 SWAP1 POP JUMP JUMPDEST PUSH1 0x0 PUSH2 0x38C DUP3 PUSH2 0x361 JUMP JUMPDEST SWAP1 POP SWAP2 SWAP1 POP JUMP JUMPDEST PUSH2 0x39C DUP2 PUSH2 0x381 JUMP JUMPDEST DUP2 EQ PUSH2 0x3A7 JUMPI PUSH1 0x0 DUP1 REVERT JUMPDEST POP JUMP JUMPDEST PUSH1 0x0 DUP2 CALLDATALOAD SWAP1 POP PUSH2 0x3B9 DUP2 PUSH2 0x393 JUMP JUMPDEST SWAP3 SWAP2 POP POP JUMP JUMPDEST PUSH1 0x0 PUSH1 0x20 DUP3 DUP5 SUB SLT ISZERO PUSH2 0x3D5 JUMPI PUSH2 0x3D4 PUSH2 0x357 JUMP JUMPDEST JUMPDEST PUSH1 0x0 PUSH2 0x3E3 DUP5 DUP3 DUP6 ADD PUSH2 0x3AA JUMP JUMPDEST SWAP2 POP POP SWAP3 SWAP2 POP POP JUMP JUMPDEST PUSH1 0x0 DUP2 MLOAD SWAP1 POP SWAP2 SWAP1 POP JUMP JUMPDEST PUSH1 0x0 DUP3 DUP3 MSTORE PUSH1 0x20 DUP3 ADD SWAP1 POP SWAP3 SWAP2 POP POP JUMP JUMPDEST PUSH1 0x0 JUMPDEST DUP4 DUP2 LT ISZERO PUSH2 0x426 JUMPI DUP1 DUP3 ADD MLOAD DUP2 DUP5 ADD MSTORE PUSH1 0x20 DUP2 ADD SWAP1 POP PUSH2 0x40B JUMP JUMPDEST PUSH1 0x0 DUP5 DUP5 ADD MSTORE POP POP POP POP JUMP JUMPDEST PUSH1 0x0 PUSH1 0x1F NOT PUSH1 0x1F DUP4 ADD AND SWAP1 POP SWAP2 SWAP1 POP JUMP JUMPDEST PUSH1 0x0 PUSH2 0x44E DUP3 PUSH2 0x3EC JUMP JUMPDEST PUSH2 0x458 DUP2 DUP6 PUSH2 0x3F7 JUMP JUMPDEST SWAP4 POP PUSH2 0x468 DUP2 DUP6 PUSH1 0x20 DUP7 ADD PUSH2 0x408 JUMP JUMPDEST PUSH2 0x471 DUP2 PUSH2 0x432 JUMP JUMPDEST DUP5 ADD SWAP2 POP POP SWAP3 SWAP2 POP POP JUMP JUMPDEST PUSH1 0x0 PUSH1 0x20 DUP3 ADD SWAP1 POP DUP2 DUP2 SUB PUSH1 0x0 DUP4 ADD MSTORE PUSH2 0x496 DUP2 DUP5 PUSH2 0x443 JUMP JUMPDEST SWAP1 POP SWAP3 SWAP2 POP POP JUMP JUMPDEST PUSH1 0x0 DUP1 REVERT JUMPDEST PUSH1 0x0 DUP1 REVERT JUMPDEST PUSH32 0x4E487B7100000000000000000000000000000000000000000000000000000000 PUSH1 0x0 MSTORE PUSH1 0x41 PUSH1 0x4 MSTORE PUSH1 0x24 PUSH1 0x0 REVERT JUMPDEST PUSH2 0x4E0 DUP3 PUSH2 0x432 JUMP JUMPDEST DUP2 ADD DUP2 DUP2 LT PUSH8 0xFFFFFFFFFFFFFFFF DUP3 GT OR ISZERO PUSH2 0x4FF JUMPI PUSH2 0x4FE PUSH2 0x4A8 JUMP JUMPDEST JUMPDEST DUP1 PUSH1 0x40 MSTORE POP POP POP JUMP JUMPDEST PUSH1 0x0 PUSH2 0x512 PUSH2 0x34D JUMP JUMPDEST SWAP1 POP PUSH2 0x51E DUP3 DUP3 PUSH2 0x4D7 JUMP JUMPDEST SWAP2 SWAP1 POP JUMP JUMPDEST PUSH1 0x0 PUSH8 0xFFFFFFFFFFFFFFFF DUP3 GT ISZERO PUSH2 0x53E JUMPI PUSH2 0x53D PUSH2 0x4A8 JUMP JUMPDEST JUMPDEST PUSH2 0x547 DUP3 PUSH2 0x432 JUMP JUMPDEST SWAP1 POP PUSH1 0x20 DUP2 ADD SWAP1 POP SWAP2 SWAP1 POP JUMP JUMPDEST DUP3 DUP2 DUP4 CALLDATACOPY PUSH1 0x0 DUP4 DUP4 ADD MSTORE POP POP POP JUMP JUMPDEST PUSH1 0x0 PUSH2 0x576 PUSH2 0x571 DUP5 PUSH2 0x523 JUMP JUMPDEST PUSH2 0x508 JUMP JUMPDEST SWAP1 POP DUP3 DUP2 MSTORE PUSH1 0x20 DUP2 ADD DUP5 DUP5 DUP5 ADD GT ISZERO PUSH2 0x592 JUMPI PUSH2 0x591 PUSH2 0x4A3 JUMP JUMPDEST JUMPDEST PUSH2 0x59D DUP5 DUP3 DUP6 PUSH2 0x554 JUMP JUMPDEST POP SWAP4 SWAP3 POP POP POP JUMP JUMPDEST PUSH1 0x0 DUP3 PUSH1 0x1F DUP4 ADD SLT PUSH2 0x5BA JUMPI PUSH2 0x5B9 PUSH2 0x49E JUMP JUMPDEST JUMPDEST DUP2 CALLDATALOAD PUSH2 0x5CA DUP5 DUP3 PUSH1 0x20 DUP7 ADD PUSH2 0x563 JUMP JUMPDEST SWAP2 POP POP SWAP3 SWAP2 POP POP JUMP JUMPDEST PUSH1 0x0 PUSH1 0x20 DUP3 DUP5 SUB SLT ISZERO PUSH2 0x5E9 JUMPI PUSH2 0x5E8 PUSH2 0x357 JUMP JUMPDEST JUMPDEST PUSH1 0x0 DUP3 ADD CALLDATALOAD PUSH8 0xFFFFFFFFFFFFFFFF DUP2 GT ISZERO PUSH2 0x607 JUMPI PUSH2 0x606 PUSH2 0x35C JUMP JUMPDEST JUMPDEST PUSH2 0x613 DUP5 DUP3 DUP6 ADD PUSH2 0x5A5 JUMP JUMPDEST SWAP2 POP POP SWAP3 SWAP2 POP POP JUMP JUMPDEST PUSH1 0x0 DUP2 ISZERO ISZERO SWAP1 POP SWAP2 SWAP1 POP JUMP JUMPDEST PUSH2 0x631 DUP2 PUSH2 0x61C JUMP JUMPDEST DUP3 MSTORE POP POP JUMP JUMPDEST PUSH1 0x0 PUSH1 0x20 DUP3 ADD SWAP1 POP PUSH2 0x64C PUSH1 0x0 DUP4 ADD DUP5 PUSH2 0x628 JUMP JUMPDEST SWAP3 SWAP2 POP POP JUMP JUMPDEST PUSH32 0x4E487B7100000000000000000000000000000000000000000000000000000000 PUSH1 0x0 MSTORE PUSH1 0x22 PUSH1 0x4 MSTORE PUSH1 0x24 PUSH1 0x0 REVERT JUMPDEST PUSH1 0x0 PUSH1 0x2 DUP3 DIV SWAP1 POP PUSH1 0x1 DUP3 AND DUP1 PUSH2 0x699 JUMPI PUSH1 0x7F DUP3 AND SWAP2 POP JUMPDEST PUSH1 0x20 DUP3 LT DUP2 SUB PUSH2 0x6AC JUMPI PUSH2 0x6AB PUSH2 0x652 JUMP JUMPDEST JUMPDEST POP SWAP2 SWAP1 POP JUMP JUMPDEST PUSH1 0x0 DUP2 SWAP1 POP DUP2 PUSH1 0x0 MSTORE PUSH1 0x20 PUSH1 0x0 KECCAK256 SWAP1 POP SWAP2 SWAP1 POP JUMP JUMPDEST PUSH1 0x0 PUSH1 0x20 PUSH1 0x1F DUP4 ADD DIV SWAP1 POP SWAP2 SWAP1 POP JUMP JUMPDEST PUSH1 0x0 DUP3 DUP3 SHL SWAP1 POP SWAP3 SWAP2 POP POP JUMP JUMPDEST PUSH1 0x0 PUSH1 0x8 DUP4 MUL PUSH2 0x714 PUSH32 0xFFFFFFFFFFFFFFFFFFFFFFFFFFFFFFFFFFFFFFFFFFFFFFFFFFFFFFFFFFFFFFFF DUP3 PUSH2 0x6D7 JUMP JUMPDEST PUSH2 0x71E DUP7 DUP4 PUSH2 0x6D7 JUMP JUMPDEST SWAP6 POP DUP1 NOT DUP5 AND SWAP4 POP DUP1 DUP7 AND DUP5 OR SWAP3 POP POP POP SWAP4 SWAP3 POP POP POP JUMP JUMPDEST PUSH1 0x0 DUP2 SWAP1 POP SWAP2 SWAP1 POP JUMP JUMPDEST PUSH1 0x0 DUP2 SWAP1 POP SWAP2 SWAP1 POP JUMP JUMPDEST PUSH1 0x0 PUSH2 0x765 PUSH2 0x760 PUSH2 0x75B DUP5 PUSH2 0x736 JUMP JUMPDEST PUSH2 0x740 JUMP JUMPDEST PUSH2 0x736 JUMP JUMPDEST SWAP1 POP SWAP2 SWAP1 POP JUMP JUMPDEST PUSH1 0x0 DUP2 SWAP1 POP SWAP2 SWAP1 POP JUMP JUMPDEST PUSH2 0x77F DUP4 PUSH2 0x74A JUMP JUMPDEST PUSH2 0x793 PUSH2 0x78B DUP3 PUSH2 0x76C JUMP JUMPDEST DUP5 DUP5 SLOAD PUSH2 0x6E4 JUMP JUMPDEST DUP3 SSTORE POP POP POP POP JUMP JUMPDEST PUSH1 0x0 SWAP1 JUMP JUMPDEST PUSH2 0x7A8 PUSH2 0x79B JUMP JUMPDEST PUSH2 0x7B3 DUP2 DUP5 DUP5 PUSH2 0x776 JUMP JUMPDEST POP POP POP JUMP JUMPDEST JUMPDEST DUP2 DUP2 LT ISZERO PUSH2 0x7D7 JUMPI PUSH2 0x7CC PUSH1 0x0 DUP3 PUSH2 0x7A0 JUMP JUMPDEST PUSH1 0x1 DUP2 ADD SWAP1 POP PUSH2 0x7B9 JUMP JUMPDEST POP POP JUMP JUMPDEST PUSH1 0x1F DUP3 GT ISZERO PUSH2 0x81C JUMPI PUSH2 0x7ED DUP2 PUSH2 0x6B2 JUMP JUMPDEST PUSH2 0x7F6 DUP5 PUSH2 0x6C7 JUMP JUMPDEST DUP2 ADD PUSH1 0x20 DUP6 LT ISZERO PUSH2 0x805 JUMPI DUP2 SWAP1 POP JUMPDEST PUSH2 0x819 PUSH2 0x811 DUP6 PUSH2 0x6C7 JUMP JUMPDEST DUP4 ADD DUP3 PUSH2 0x7B8 JUMP JUMPDEST POP POP JUMPDEST POP POP POP JUMP JUMPDEST PUSH1 0x0 DUP3 DUP3 SHR SWAP1 POP SWAP3 SWAP2 POP POP JUMP JUMPDEST PUSH1 0x0 PUSH2 0x83F PUSH1 0x0 NOT DUP5 PUSH1 0x8 MUL PUSH2 0x821 JUMP JUMPDEST NOT DUP1 DUP4 AND SWAP2 POP POP SWAP3 SWAP2 POP POP JUMP JUMPDEST PUSH1 0x0 PUSH2 0x858 DUP4 DUP4 PUSH2 0x82E JUMP JUMPDEST SWAP2 POP DUP3 PUSH1 0x2 MUL DUP3 OR SWAP1 POP SWAP3 SWAP2 POP POP JUMP JUMPDEST PUSH2 0x871 DUP3 PUSH2 0x3EC JUMP JUMPDEST PUSH8 0xFFFFFFFFFFFFFFFF DUP2 GT ISZERO PUSH2 0x88A JUMPI PUSH2 0x889 PUSH2 0x4A8 JUMP JUMPDEST JUMPDEST PUSH2 0x894 DUP3 SLOAD PUSH2 0x681 JUMP JUMPDEST PUSH2 0x89F DUP3 DUP3 DUP6 PUSH2 0x7DB JUMP JUMPDEST PUSH1 0x0 PUSH1 0x20 SWAP1 POP PUSH1 0x1F DUP4 GT PUSH1 0x1 DUP2 EQ PUSH2 0x8D2 JUMPI PUSH1 0x0 DUP5 ISZERO PUSH2 0x8C0 JUMPI DUP3 DUP8 ADD MLOAD SWAP1 POP JUMPDEST PUSH2 0x8CA DUP6 DUP3 PUSH2 0x84C JUMP JUMPDEST DUP7 SSTORE POP PUSH2 0x932 JUMP JUMPDEST PUSH1 0x1F NOT DUP5 AND PUSH2 0x8E0 DUP7 PUSH2 0x6B2 JUMP JUMPDEST PUSH1 0x0 JUMPDEST DUP3 DUP2 LT ISZERO PUSH2 0x908 JUMPI DUP5 DUP10 ADD MLOAD DUP3 SSTORE PUSH1 0x1 DUP3 ADD SWAP2 POP PUSH1 0x20 DUP6 ADD SWAP5 POP PUSH1 0x20 DUP2 ADD SWAP1 POP PUSH2 0x8E3 JUMP JUMPDEST DUP7 DUP4 LT ISZERO PUSH2 0x925 JUMPI DUP5 DUP10 ADD MLOAD PUSH2 0x921 PUSH1 0x1F DUP10 AND DUP3 PUSH2 0x82E JUMP JUMPDEST DUP4 SSTORE POP JUMPDEST PUSH1 0x1 PUSH1 0x2 DUP9 MUL ADD DUP9 SSTORE POP POP POP JUMPDEST POP POP POP POP POP POP JUMP INVALID LOG2 PUSH5 0x6970667358 0x22 SLT KECCAK256 0xCF SWAP8 0x5F RETURNDATACOPY PC DUP4 ADD SWAP15 CALLER 0x25 0xC BALANCE SWAP7 MLOAD RETURNDATACOPY SWAP12 0xB5 0xA8 OR REVERT RETURNDATASIZE CALL 0xC8 0xB0 0xBE 0x49 0xED LOG0 PUSH10 0xD5B6AB64736F6C634300 ADDMOD SGT STOP CALLER "
				},
				"gasEstimates": {
					"creation": {
						"codeDepositCost": "483200",
						"executionCost": "518",
						"totalCost": "483718"
					},
					"external": {
						"getQuote(address)": "infinite",
						"hasSetQuote(address)": "2905",
						"setQuote(string)": "infinite"
					}
				},
				"methodIdentifiers": {
					"getQuote(address)": "c23cb92a",
					"hasSetQuote(address)": "f93ce758",
					"setQuote(string)": "e3de1703"
				}
			},
			"storageLayout": {
				"storage": [
					{
						"astId": 9,
						"contract": "contracts/mappings/FavoriteQuoteBoard.sol:FavoriteQuoteBoard",
						"label": "s_quotes",
						"offset": 0,
						"slot": "0",
						"type": "t_mapping(t_address,t_string_storage)"
					},
					{
						"astId": 13,
						"contract": "contracts/mappings/FavoriteQuoteBoard.sol:FavoriteQuoteBoard",
						"label": "s_hasSetQuote",
						"offset": 0,
						"slot": "1",
						"type": "t_mapping(t_address,t_bool)"
					}
				],
				"types": {
					"t_address": {
						"encoding": "inplace",
						"label": "address",
						"numberOfBytes": "20"
					},
					"t_bool": {
						"encoding": "inplace",
						"label": "bool",
						"numberOfBytes": "1"
					},
					"t_mapping(t_address,t_bool)": {
						"encoding": "mapping",
						"key": "t_address",
						"label": "mapping(address => bool)",
						"numberOfBytes": "32",
						"value": "t_bool"
					},
					"t_mapping(t_address,t_string_storage)": {
						"encoding": "mapping",
						"key": "t_address",
						"label": "mapping(address => string)",
						"numberOfBytes": "32",
						"value": "t_string_storage"
					},
					"t_string_storage": {
						"encoding": "bytes",
						"label": "string",
						"numberOfBytes": "32"
					}
				}
			},
			"userdoc": {
				"kind": "user",
				"methods": {},
				"version": 1
			}
		}
	}
}